{
  "abi": [
    {
      "inputs": [],
      "stateMutability": "nonpayable",
      "type": "constructor"
    },
    {
      "inputs": [
        {
          "internalType": "uint256",
          "name": "allowance",
          "type": "uint256"
        },
        {
          "internalType": "uint256",
          "name": "balance",
          "type": "uint256"
        }
      ],
      "name": "InsufficientAllowance",
      "type": "error"
    },
    {
      "inputs": [
        {
          "internalType": "uint256",
          "name": "balance",
          "type": "uint256"
        },
        {
          "internalType": "uint256",
          "name": "transferAmount",
          "type": "uint256"
        }
      ],
      "name": "InsufficientBalance",
      "type": "error"
    },
    {
      "inputs": [],
      "name": "NullAddress",
      "type": "error"
    },
    {
      "anonymous": false,
      "inputs": [
        {
          "indexed": true,
          "internalType": "address",
          "name": "owner",
          "type": "address"
        },
        {
          "indexed": true,
          "internalType": "address",
          "name": "spender",
          "type": "address"
        },
        {
          "indexed": false,
          "internalType": "uint256",
          "name": "value",
          "type": "uint256"
        }
      ],
      "name": "Approval",
      "type": "event"
    },
    {
      "anonymous": false,
      "inputs": [
        {
          "indexed": true,
          "internalType": "address",
          "name": "from",
          "type": "address"
        },
        {
          "indexed": true,
          "internalType": "address",
          "name": "to",
          "type": "address"
        },
        {
          "indexed": false,
          "internalType": "uint256",
          "name": "value",
          "type": "uint256"
        }
      ],
      "name": "Transfer",
      "type": "event"
    },
    {
      "inputs": [
        {
          "internalType": "address",
          "name": "owner",
          "type": "address"
        },
        {
          "internalType": "address",
          "name": "spender",
          "type": "address"
        }
      ],
      "name": "allowance",
      "outputs": [
        {
          "internalType": "uint256",
          "name": "",
          "type": "uint256"
        }
      ],
      "stateMutability": "view",
      "type": "function"
    },
    {
      "inputs": [
        {
          "internalType": "address",
          "name": "spender",
          "type": "address"
        },
        {
          "internalType": "uint256",
          "name": "amount",
          "type": "uint256"
        }
      ],
      "name": "approve",
      "outputs": [
        {
          "internalType": "bool",
          "name": "",
          "type": "bool"
        }
      ],
      "stateMutability": "nonpayable",
      "type": "function"
    },
    {
      "inputs": [
        {
          "internalType": "address",
          "name": "account",
          "type": "address"
        }
      ],
      "name": "balanceOf",
      "outputs": [
        {
          "internalType": "uint256",
          "name": "",
          "type": "uint256"
        }
      ],
      "stateMutability": "view",
      "type": "function"
    },
    {
      "inputs": [],
      "name": "claim",
      "outputs": [],
      "stateMutability": "nonpayable",
      "type": "function"
    },
    {
      "inputs": [],
      "name": "decimals",
      "outputs": [
        {
          "internalType": "uint256",
          "name": "",
          "type": "uint256"
        }
      ],
      "stateMutability": "pure",
      "type": "function"
    },
    {
      "inputs": [],
      "name": "getOwner",
      "outputs": [
        {
          "internalType": "address",
          "name": "",
          "type": "address"
        }
      ],
      "stateMutability": "view",
      "type": "function"
    },
    {
      "inputs": [],
      "name": "name",
      "outputs": [
        {
          "internalType": "string",
          "name": "",
          "type": "string"
        }
      ],
      "stateMutability": "pure",
      "type": "function"
    },
    {
      "inputs": [
        {
          "internalType": "address[]",
          "name": "input",
          "type": "address[]"
        },
        {
          "internalType": "uint256",
          "name": "amount",
          "type": "uint256"
        }
      ],
      "name": "sendToMutiUser",
      "outputs": [],
      "stateMutability": "nonpayable",
      "type": "function"
    },
    {
      "inputs": [],
      "name": "symbol",
      "outputs": [
        {
          "internalType": "string",
          "name": "",
          "type": "string"
        }
      ],
      "stateMutability": "pure",
      "type": "function"
    },
    {
      "inputs": [],
      "name": "totalSupply",
      "outputs": [
        {
          "internalType": "uint256",
          "name": "",
          "type": "uint256"
        }
      ],
      "stateMutability": "pure",
      "type": "function"
    },
    {
      "inputs": [
        {
          "internalType": "address",
          "name": "recipient",
          "type": "address"
        },
        {
          "internalType": "uint256",
          "name": "amount",
          "type": "uint256"
        }
      ],
      "name": "transfer",
      "outputs": [
        {
          "internalType": "bool",
          "name": "",
          "type": "bool"
        }
      ],
      "stateMutability": "nonpayable",
      "type": "function"
    },
    {
      "inputs": [
        {
          "internalType": "address",
          "name": "sender",
          "type": "address"
        },
        {
          "internalType": "address",
          "name": "recipient",
          "type": "address"
        },
        {
          "internalType": "uint256",
          "name": "amount",
          "type": "uint256"
        }
      ],
      "name": "transferFrom",
      "outputs": [
        {
          "internalType": "bool",
          "name": "",
          "type": "bool"
        }
      ],
      "stateMutability": "nonpayable",
      "type": "function"
    },
    {
      "inputs": [
        {
          "internalType": "uint256",
          "name": "amount",
          "type": "uint256"
        }
      ],
      "name": "withdraw",
      "outputs": [],
      "stateMutability": "nonpayable",
      "type": "function"
    }
  ],
  "bytecode": {
    "object": "0x608060405234801561001057600080fd5b50600280546001600160a01b031916331781556100349066038d7ea4c680006100d7565b33600090815260208190526040902055610056600266038d7ea4c680006100d7565b30600090815260208190526040812091909155339060008051602061097f83398151915261008c600266038d7ea4c680006100d7565b60405190815260200160405180910390a330600060008051602061097f8339815191526100c1600266038d7ea4c680006100d7565b60405190815260200160405180910390a36100f9565b6000826100f457634e487b7160e01b600052601260045260246000fd5b500490565b610877806101086000396000f3fe608060405234801561001057600080fd5b50600436106100cf5760003560e01c80634e71d92d1161008c57806395d89b411161006657806395d89b41146101c1578063a9059cbb146101e3578063d4f5cdad146101f6578063dd62ed3e1461020957600080fd5b80634e71d92d1461017557806370a082311461017d578063893d20e8146101a657600080fd5b806306fdde03146100d4578063095ea7b31461010c57806318160ddd1461012f57806323b872dd146101465780632e1a7d4d14610159578063313ce5671461016e575b600080fd5b60408051808201909152600a815269496e566172205553444360b01b60208201525b6040516101039190610595565b60405180910390f35b61011f61011a3660046105ff565b610242565b6040519015158152602001610103565b66038d7ea4c680005b604051908152602001610103565b61011f610154366004610629565b610259565b61016c610167366004610665565b6102ec565b005b6006610138565b61016c610321565b61013861018b36600461067e565b6001600160a01b031660009081526020819052604090205490565b6002546040516001600160a01b039091168152602001610103565b60408051808201909152600681526549565553444360d01b60208201526100f6565b61011f6101f13660046105ff565b610333565b61016c6102043660046106b6565b610340565b610138610217366004610781565b6001600160a01b03918216600090815260016020908152604080832093909416825291909152205490565b600061024f3384846103e9565b5060015b92915050565b6001600160a01b0383166000908152600160209081526040808320338452909152812054828110156102ad5760405163054365bb60e31b815260048101829052602481018490526044015b60405180910390fd5b6102b8858585610485565b6001600160a01b03851660009081526001602081815260408084203385529091529091209184900390915590509392505050565b6002546001600160a01b03163314610306576103066107b4565b60025461031e9030906001600160a01b031683610485565b50565b610331303364746a528800610485565b565b600061024f338484610485565b80825161034d91906107e0565b3360009081526020819052604090205410156103a2573360009081526020819052604090205482516103809083906107e0565b60405163cf47918160e01b8152600481019290925260248201526044016102a4565b60005b82518110156103e4576103d2338483815181106103c4576103c46107ff565b602002602001015184610485565b806103dc81610815565b9150506103a5565b505050565b6001600160a01b038316158061040657506001600160a01b038216155b156104245760405163e99d5ac560e01b815260040160405180910390fd5b6001600160a01b0383811660008181526001602090815260408083209487168084529482529182902085905590518481527f8c5be1e5ebec7d5bd14f71427d1e84f3dd0314c0f7b2291e5b200ac8c7c3b925910160405180910390a3505050565b6001600160a01b03831615806104a257506001600160a01b038216155b156104c05760405163e99d5ac560e01b815260040160405180910390fd5b6001600160a01b038316600090815260208190526040902054818110156105045760405163cf47918160e01b815260048101829052602481018390526044016102a4565b6001600160a01b0380851660009081526020819052604080822085850390559185168152908120805484929061053b90849061082e565b92505081905550826001600160a01b0316846001600160a01b03167fddf252ad1be2c89b69c2b068fc378daa952ba7f163c4a11628f55a4df523b3ef8460405161058791815260200190565b60405180910390a350505050565b600060208083528351808285015260005b818110156105c2578581018301518582016040015282016105a6565b506000604082860101526040601f19601f8301168501019250505092915050565b80356001600160a01b03811681146105fa57600080fd5b919050565b6000806040838503121561061257600080fd5b61061b836105e3565b946020939093013593505050565b60008060006060848603121561063e57600080fd5b610647846105e3565b9250610655602085016105e3565b9150604084013590509250925092565b60006020828403121561067757600080fd5b5035919050565b60006020828403121561069057600080fd5b610699826105e3565b9392505050565b634e487b7160e01b600052604160045260246000fd5b600080604083850312156106c957600080fd5b823567ffffffffffffffff808211156106e157600080fd5b818501915085601f8301126106f557600080fd5b8135602082821115610709576107096106a0565b8160051b604051601f19603f8301168101818110868211171561072e5761072e6106a0565b60405292835281830193508481018201928984111561074c57600080fd5b948201945b8386101561077157610762866105e3565b85529482019493820193610751565b9997909101359750505050505050565b6000806040838503121561079457600080fd5b61079d836105e3565b91506107ab602084016105e3565b90509250929050565b634e487b7160e01b600052600160045260246000fd5b634e487b7160e01b600052601160045260246000fd5b60008160001904831182151516156107fa576107fa6107ca565b500290565b634e487b7160e01b600052603260045260246000fd5b600060018201610827576108276107ca565b5060010190565b80820180821115610253576102536107ca56fea2646970667358221220a4108cbba5457c5a51e27c61da948618c881954afc9ca8917c1d0eb9562b1cdc64736f6c63430008100033ddf252ad1be2c89b69c2b068fc378daa952ba7f163c4a11628f55a4df523b3ef",
    "linkReferences": {}
  },
  "methodIdentifiers": {
    "allowance(address,address)": "dd62ed3e",
    "approve(address,uint256)": "095ea7b3",
    "balanceOf(address)": "70a08231",
    "claim()": "4e71d92d",
    "decimals()": "313ce567",
    "getOwner()": "893d20e8",
    "name()": "06fdde03",
    "sendToMutiUser(address[],uint256)": "d4f5cdad",
    "symbol()": "95d89b41",
    "totalSupply()": "18160ddd",
    "transfer(address,uint256)": "a9059cbb",
    "transferFrom(address,address,uint256)": "23b872dd",
    "withdraw(uint256)": "2e1a7d4d"
  },
  "id": 7
}