{
  "abi": [
    {
      "inputs": [
        {
          "internalType": "uint256",
          "name": "available",
          "type": "uint256"
        },
        {
          "internalType": "uint256",
          "name": "required",
          "type": "uint256"
        }
      ],
      "name": "InsufficientBalance",
      "type": "error"
    },
    {
      "inputs": [],
      "name": "InvaildStaker",
      "type": "error"
    },
    {
      "inputs": [],
      "name": "VaultUnavailable",
      "type": "error"
    },
    {
      "anonymous": false,
      "inputs": [
        {
          "indexed": false,
          "internalType": "address",
          "name": "previousAdmin",
          "type": "address"
        },
        {
          "indexed": false,
          "internalType": "address",
          "name": "newAdmin",
          "type": "address"
        }
      ],
      "name": "AdminChanged",
      "type": "event"
    },
    {
      "anonymous": false,
      "inputs": [
        {
          "indexed": true,
          "internalType": "address",
          "name": "beacon",
          "type": "address"
        }
      ],
      "name": "BeaconUpgraded",
      "type": "event"
    },
    {
      "anonymous": false,
      "inputs": [
        {
          "indexed": true,
          "internalType": "address",
          "name": "staker",
          "type": "address"
        },
        {
          "indexed": false,
          "internalType": "uint256",
          "name": "withdrawAmount",
          "type": "uint256"
        }
      ],
      "name": "Claim",
      "type": "event"
    },
    {
      "anonymous": false,
      "inputs": [
        {
          "indexed": false,
          "internalType": "uint8",
          "name": "version",
          "type": "uint8"
        }
      ],
      "name": "Initialized",
      "type": "event"
    },
    {
      "anonymous": false,
      "inputs": [
        {
          "indexed": true,
          "internalType": "address",
          "name": "previousOwner",
          "type": "address"
        },
        {
          "indexed": true,
          "internalType": "address",
          "name": "newOwner",
          "type": "address"
        }
      ],
      "name": "OwnershipTransferred",
      "type": "event"
    },
    {
      "anonymous": false,
      "inputs": [
        {
          "indexed": true,
          "internalType": "address",
          "name": "staker",
          "type": "address"
        },
        {
          "indexed": false,
          "internalType": "uint256",
          "name": "stakeBalance",
          "type": "uint256"
        }
      ],
      "name": "Stake",
      "type": "event"
    },
    {
      "anonymous": false,
      "inputs": [
        {
          "indexed": true,
          "internalType": "address",
          "name": "implementation",
          "type": "address"
        }
      ],
      "name": "Upgraded",
      "type": "event"
    },
    {
      "anonymous": false,
      "inputs": [
        {
          "indexed": true,
          "internalType": "address",
          "name": "multisig",
          "type": "address"
        },
        {
          "indexed": false,
          "internalType": "uint256",
          "name": "withdrawAmount",
          "type": "uint256"
        }
      ],
      "name": "Withdraw",
      "type": "event"
    },
    {
      "inputs": [],
      "name": "balanceOf",
      "outputs": [
        {
          "internalType": "uint256",
          "name": "",
          "type": "uint256"
        }
      ],
      "stateMutability": "view",
      "type": "function"
    },
    {
      "inputs": [],
      "name": "claim",
      "outputs": [],
      "stateMutability": "nonpayable",
      "type": "function"
    },
    {
      "inputs": [
        {
          "internalType": "address",
          "name": "staker",
          "type": "address"
        }
      ],
      "name": "claimableOf",
      "outputs": [
        {
          "internalType": "uint256",
          "name": "",
          "type": "uint256"
        }
      ],
      "stateMutability": "view",
      "type": "function"
    },
    {
      "inputs": [],
      "name": "duration",
      "outputs": [
        {
          "internalType": "uint256",
          "name": "",
          "type": "uint256"
        }
      ],
      "stateMutability": "view",
      "type": "function"
    },
    {
      "inputs": [
        {
          "internalType": "uint256",
          "name": "_vaultStartingTime",
          "type": "uint256"
        },
        {
          "internalType": "uint256",
          "name": "_duration",
          "type": "uint256"
        },
        {
          "internalType": "address",
          "name": "_multisig",
          "type": "address"
        }
      ],
      "name": "initialize",
      "outputs": [],
      "stateMutability": "nonpayable",
      "type": "function"
    },
    {
      "inputs": [],
      "name": "multisig",
      "outputs": [
        {
          "internalType": "address",
          "name": "",
          "type": "address"
        }
      ],
      "stateMutability": "view",
      "type": "function"
    },
    {
      "inputs": [],
      "name": "owner",
      "outputs": [
        {
          "internalType": "address",
          "name": "",
          "type": "address"
        }
      ],
      "stateMutability": "view",
      "type": "function"
    },
    {
      "inputs": [],
      "name": "proxiableUUID",
      "outputs": [
        {
          "internalType": "bytes32",
          "name": "",
          "type": "bytes32"
        }
      ],
      "stateMutability": "view",
      "type": "function"
    },
    {
      "inputs": [],
      "name": "renounceOwnership",
      "outputs": [],
      "stateMutability": "nonpayable",
      "type": "function"
    },
    {
      "inputs": [
        {
          "internalType": "uint256",
          "name": "_duration",
          "type": "uint256"
        }
      ],
      "name": "setTimelock",
      "outputs": [],
      "stateMutability": "nonpayable",
      "type": "function"
    },
    {
      "inputs": [
        {
          "internalType": "uint256",
          "name": "balance",
          "type": "uint256"
        }
      ],
      "name": "stake",
      "outputs": [],
      "stateMutability": "nonpayable",
      "type": "function"
    },
    {
      "inputs": [
        {
          "internalType": "enum USDCVaultLogic.Actions",
          "name": "",
          "type": "uint8"
        }
      ],
      "name": "timelock",
      "outputs": [
        {
          "internalType": "uint256",
          "name": "",
          "type": "uint256"
        }
      ],
      "stateMutability": "view",
      "type": "function"
    },
    {
      "inputs": [
        {
          "internalType": "address",
          "name": "newOwner",
          "type": "address"
        }
      ],
      "name": "transferOwnership",
      "outputs": [],
      "stateMutability": "nonpayable",
      "type": "function"
    },
    {
      "inputs": [
        {
          "internalType": "address",
          "name": "newImplementation",
          "type": "address"
        }
      ],
      "name": "upgradeTo",
      "outputs": [],
      "stateMutability": "nonpayable",
      "type": "function"
    },
    {
      "inputs": [
        {
          "internalType": "address",
          "name": "newImplementation",
          "type": "address"
        },
        {
          "internalType": "bytes",
          "name": "data",
          "type": "bytes"
        }
      ],
      "name": "upgradeToAndCall",
      "outputs": [],
      "stateMutability": "payable",
      "type": "function"
    },
    {
      "inputs": [],
      "name": "withdraw",
      "outputs": [],
      "stateMutability": "nonpayable",
      "type": "function"
    }
  ],
  "bytecode": {
    "object": "0x60a06040523060805234801561001457600080fd5b5061001e33610023565b610073565b600080546001600160a01b038381166001600160a01b0319831681178455604051919092169283917f8be0079c531659141344cd1fd0a4f28419497f9722a3daafe3b4186f6b6457e09190a35050565b6080516116916100aa60003960008181610357015281816103a0015281816106aa015281816106ea015261077d01526116916000f3fe6080604052600436106100f35760003560e01c8063715018a61161008a578063a694fc3a11610059578063a694fc3a14610255578063a6ab36f214610275578063c17bae2a14610295578063f2fde38b146102c257600080fd5b8063715018a6146101ed578063722713f7146102025780638903ab9d146102175780638da5cb5b1461023757600080fd5b80634783c35b116100c65780634783c35b146101785780634e71d92d146101b05780634f1ef286146101c557806352d1902d146101d857600080fd5b80630fb5a6b4146100f85780631e891c0a146101215780633659cfe6146101435780633ccfd60b14610163575b600080fd5b34801561010457600080fd5b5061010e60045481565b6040519081526020015b60405180910390f35b34801561012d57600080fd5b5061014161013c36600461129d565b6102e2565b005b34801561014f57600080fd5b5061014161015e3660046112d2565b61034d565b34801561016f57600080fd5b50610141610435565b34801561018457600080fd5b50600554610198906001600160a01b031681565b6040516001600160a01b039091168152602001610118565b3480156101bc57600080fd5b50610141610516565b6101416101d3366004611303565b6106a0565b3480156101e457600080fd5b5061010e610770565b3480156101f957600080fd5b50610141610823565b34801561020e57600080fd5b5061010e610837565b34801561022357600080fd5b5061010e6102323660046112d2565b6108a9565b34801561024357600080fd5b506000546001600160a01b0316610198565b34801561026157600080fd5b5061014161027036600461129d565b6108dd565b34801561028157600080fd5b506101416102903660046113c5565b610b49565b3480156102a157600080fd5b5061010e6102b03660046113fa565b60026020526000908152604090205481565b3480156102ce57600080fd5b506101416102dd3660046112d2565b610d18565b6102ea610d8e565b600080526002602052427fac33ff75c19e70fe83507db0d683fd3465c996598dc972688b7ace676c89077b819055600a90610326908390611447565b6103309190611447565b600160005260026020526000805160206116158339815191525550565b6001600160a01b037f000000000000000000000000000000000000000000000000000000000000000016300361039e5760405162461bcd60e51b81526004016103959061145a565b60405180910390fd5b7f00000000000000000000000000000000000000000000000000000000000000006001600160a01b03166103e76000805160206115f5833981519152546001600160a01b031690565b6001600160a01b03161461040d5760405162461bcd60e51b8152600401610395906114a6565b61041681610de8565b6040805160008082526020820190925261043291839190610df0565b50565b61043d610d8e565b6001546005546001600160a01b039182169163a9059cbb911661045e610837565b6040516001600160e01b031960e085901b1681526001600160a01b03909216600483015260248201526044016020604051808303816000875af11580156104a9573d6000803e3d6000fd5b505050506040513d601f19601f820116820180604052508101906104cd91906114f2565b506005546001600160a01b03167f884edad9ce6fa2440d8a54cc123490eb96d2768479d49ff9c7366125a9424364610503610837565b60405190815260200160405180910390a2565b600160008190526002602052600080516020611615833981519152544210806105805750600454600260008360018111156105535761055361141b565b60018111156105645761056461141b565b81526020019081526020016000205461057d9190611447565b42115b1561059e576040516373470dd960e01b815260040160405180910390fd5b3360009081526003602052604081205490036105cd5760405163a894350760e01b815260040160405180910390fd5b60006105d8336108a9565b3360008181526003602052604080822091909155600154905163a9059cbb60e01b81526004810192909252602482018390529192506001600160a01b039091169063a9059cbb906044016020604051808303816000875af1158015610641573d6000803e3d6000fd5b505050506040513d601f19601f8201168201806040525081019061066591906114f2565b5060405181815233907f47cee97cb7acd717b3c0aa1435d004cd5b3c8c57d70dbceb4e4458bbd60e39d4906020015b60405180910390a25050565b6001600160a01b037f00000000000000000000000000000000000000000000000000000000000000001630036106e85760405162461bcd60e51b81526004016103959061145a565b7f00000000000000000000000000000000000000000000000000000000000000006001600160a01b03166107316000805160206115f5833981519152546001600160a01b031690565b6001600160a01b0316146107575760405162461bcd60e51b8152600401610395906114a6565b61076082610de8565b61076c82826001610df0565b5050565b6000306001600160a01b037f000000000000000000000000000000000000000000000000000000000000000016146108105760405162461bcd60e51b815260206004820152603860248201527f555550535570677261646561626c653a206d757374206e6f742062652063616c60448201527f6c6564207468726f7567682064656c656761746563616c6c00000000000000006064820152608401610395565b506000805160206115f583398151915290565b61082b610d8e565b6108356000610f60565b565b6001546040516370a0823160e01b81523060048201526000916001600160a01b0316906370a0823190602401602060405180830381865afa158015610880573d6000803e3d6000fd5b505050506040513d601f19601f820116820180604052508101906108a49190611514565b905090565b60006108b482610fb0565b6001600160a01b0383166000908152600360205260409020546108d79190611447565b92915050565b600080805260026020527fac33ff75c19e70fe83507db0d683fd3465c996598dc972688b7ace676c89077b5442108061095757506004546002600083600181111561092a5761092a61141b565b600181111561093b5761093b61141b565b8152602001908152602001600020546109549190611447565b42115b15610975576040516373470dd960e01b815260040160405180910390fd5b6001546040516370a0823160e01b815233600482015283916001600160a01b0316906370a0823190602401602060405180830381865afa1580156109bd573d6000803e3d6000fd5b505050506040513d601f19601f820116820180604052508101906109e19190611514565b1015610a77576001546040516370a0823160e01b81523360048201526001600160a01b03909116906370a0823190602401602060405180830381865afa158015610a2f573d6000803e3d6000fd5b505050506040513d601f19601f82011682018060405250810190610a539190611514565b60405163cf47918160e01b8152600481019190915260248101839052604401610395565b3360009081526003602052604081208054849290610a96908490611447565b90915550506001546040516323b872dd60e01b8152336004820152306024820152604481018490526001600160a01b03909116906323b872dd906064016020604051808303816000875af1158015610af2573d6000803e3d6000fd5b505050506040513d601f19601f82011682018060405250810190610b1691906114f2565b5060405182815233907febedb8b3c678666e7f36970bc8f57abf6d8fa2e828c0da91ea5b75bf68ed101a90602001610694565b600054600160a81b900460ff1615808015610b7157506000546001600160a01b90910460ff16105b80610b925750303b158015610b925750600054600160a01b900460ff166001145b610bf55760405162461bcd60e51b815260206004820152602e60248201527f496e697469616c697a61626c653a20636f6e747261637420697320616c72656160448201526d191e481a5b9a5d1a585b1a5e995960921b6064820152608401610395565b6000805460ff60a01b1916600160a01b1790558015610c22576000805460ff60a81b1916600160a81b1790555b610c2b33610f60565b60018054735fbdb2315678afecb367f032d93f642f64180aa36001600160a01b031991821617909155600580549091166001600160a01b0384161790556000805260026020527fac33ff75c19e70fe83507db0d683fd3465c996598dc972688b7ace676c89077b849055600a610ca18486611447565b610cab9190611447565b600160005260026020526000805160206116158339815191525560048390558015610d12576000805460ff60a81b19169055604051600181527f7f26b83ff96e1f2b6a682f133852f6798a09c465da95921460cefb38474024989060200160405180910390a15b50505050565b610d20610d8e565b6001600160a01b038116610d855760405162461bcd60e51b815260206004820152602660248201527f4f776e61626c653a206e6577206f776e657220697320746865207a65726f206160448201526564647265737360d01b6064820152608401610395565b61043281610f60565b6000546001600160a01b031633146108355760405162461bcd60e51b815260206004820181905260248201527f4f776e61626c653a2063616c6c6572206973206e6f7420746865206f776e65726044820152606401610395565b610432610d8e565b7f4910fdfa16fed3260ed0e7147f7cc6da11a60208b5b9406d12a635614ffd91435460ff1615610e2857610e2383611059565b505050565b826001600160a01b03166352d1902d6040518163ffffffff1660e01b8152600401602060405180830381865afa925050508015610e82575060408051601f3d908101601f19168201909252610e7f91810190611514565b60015b610ee55760405162461bcd60e51b815260206004820152602e60248201527f45524331393637557067726164653a206e657720696d706c656d656e7461746960448201526d6f6e206973206e6f74205555505360901b6064820152608401610395565b6000805160206115f58339815191528114610f545760405162461bcd60e51b815260206004820152602960248201527f45524331393637557067726164653a20756e737570706f727465642070726f786044820152681a58589b195555525160ba1b6064820152608401610395565b50610e238383836110f5565b600080546001600160a01b038381166001600160a01b0319831681178455604051919092169283917f8be0079c531659141344cd1fd0a4f28419497f9722a3daafe3b4186f6b6457e09190a35050565b6001600090815260026020526000805160206116158339815191525481904211610ffe576001600052600260205260008051602061161583398151915254610ff990429061152d565b611001565b600a5b6001600160a01b0384166000908152600360205260409020549091506301e1338090606490839061103490600890611540565b61103e9190611540565b611048919061155f565b611052919061155f565b9392505050565b6001600160a01b0381163b6110c65760405162461bcd60e51b815260206004820152602d60248201527f455243313936373a206e657720696d706c656d656e746174696f6e206973206e60448201526c1bdd08184818dbdb9d1c9858dd609a1b6064820152608401610395565b6000805160206115f583398151915280546001600160a01b0319166001600160a01b0392909216919091179055565b6110fe8361111a565b60008251118061110b5750805b15610e2357610d12838361115a565b61112381611059565b6040516001600160a01b038216907fbc7cd75a20ee27fd9adebab32041f755214dbc6bffa90cc0225b39da2e5c2d3b90600090a250565b60606110528383604051806060016040528060278152602001611635602791396060600080856001600160a01b03168560405161119791906115a5565b600060405180830381855af49150503d80600081146111d2576040519150601f19603f3d011682016040523d82523d6000602084013e6111d7565b606091505b50915091506111e8868383876111f2565b9695505050505050565b6060831561126157825160000361125a576001600160a01b0385163b61125a5760405162461bcd60e51b815260206004820152601d60248201527f416464726573733a2063616c6c20746f206e6f6e2d636f6e74726163740000006044820152606401610395565b508161126b565b61126b8383611273565b949350505050565b8151156112835781518083602001fd5b8060405162461bcd60e51b815260040161039591906115c1565b6000602082840312156112af57600080fd5b5035919050565b80356001600160a01b03811681146112cd57600080fd5b919050565b6000602082840312156112e457600080fd5b611052826112b6565b634e487b7160e01b600052604160045260246000fd5b6000806040838503121561131657600080fd5b61131f836112b6565b9150602083013567ffffffffffffffff8082111561133c57600080fd5b818501915085601f83011261135057600080fd5b813581811115611362576113626112ed565b604051601f8201601f19908116603f0116810190838211818310171561138a5761138a6112ed565b816040528281528860208487010111156113a357600080fd5b8260208601602083013760006020848301015280955050505050509250929050565b6000806000606084860312156113da57600080fd5b83359250602084013591506113f1604085016112b6565b90509250925092565b60006020828403121561140c57600080fd5b81356002811061105257600080fd5b634e487b7160e01b600052602160045260246000fd5b634e487b7160e01b600052601160045260246000fd5b808201808211156108d7576108d7611431565b6020808252602c908201527f46756e6374696f6e206d7573742062652063616c6c6564207468726f7567682060408201526b19195b1959d85d1958d85b1b60a21b606082015260800190565b6020808252602c908201527f46756e6374696f6e206d7573742062652063616c6c6564207468726f7567682060408201526b6163746976652070726f787960a01b606082015260800190565b60006020828403121561150457600080fd5b8151801515811461105257600080fd5b60006020828403121561152657600080fd5b5051919050565b818103818111156108d7576108d7611431565b600081600019048311821515161561155a5761155a611431565b500290565b60008261157c57634e487b7160e01b600052601260045260246000fd5b500490565b60005b8381101561159c578181015183820152602001611584565b50506000910152565b600082516115b7818460208701611581565b9190910192915050565b60208152600082518060208401526115e0816040850160208701611581565b601f01601f1916919091016040019291505056fe360894a13ba1a3210667c828492db98dca3e2076cc3735a920a3ca505d382bbce90b7bceb6e7df5418fb78d8ee546e97c83a08bbccc01a0644d599ccd2a7c2e0416464726573733a206c6f772d6c6576656c2064656c65676174652063616c6c206661696c6564a264697066735822122009af76b6e740d4072c0c490625a8f84089a23ce3b14ad6763450fc32ad038fa364736f6c63430008100033",
    "linkReferences": {}
  },
  "methodIdentifiers": {
    "balanceOf()": "722713f7",
    "claim()": "4e71d92d",
    "claimableOf(address)": "8903ab9d",
    "duration()": "0fb5a6b4",
    "initialize(uint256,uint256,address)": "a6ab36f2",
    "multisig()": "4783c35b",
    "owner()": "8da5cb5b",
    "proxiableUUID()": "52d1902d",
    "renounceOwnership()": "715018a6",
    "setTimelock(uint256)": "1e891c0a",
    "stake(uint256)": "a694fc3a",
    "timelock(uint8)": "c17bae2a",
    "transferOwnership(address)": "f2fde38b",
    "upgradeTo(address)": "3659cfe6",
    "upgradeToAndCall(address,bytes)": "4f1ef286",
    "withdraw()": "3ccfd60b"
  },
  "id": 22
}